:100000000C942A000C9447000C9447000C94470071
:100010000C9447000C9447000C9447000C94470044
:100020000C9447000C9447000C9447000C94470034
:100030000C9447000C9447000C9447000C94470024
:100040000C9447000C9447000C9447000C947E0DD0
:100050000C94470011241FBECFE5D8E0DEBFCDBF12
:1000600010E0A0E6B0E0E2E7FDE102C005900D92ED
:10007000A437B107D9F710E0A4E7B0E001C01D92A2
:10008000A539B107E1F70E946D0E0C94B70E0C94E0
:100090000000EF92FF920F931F937B018C0120E0F1
:1000A00030E040E05FE40E94F50388238CF0C80153
:1000B000B70120E030E040E05FE40E94C1010E940F
:1000C00055049B01AC01205030404040504806C0D0
:1000D000C801B7010E9455049B01AC01B901CA01D6
:1000E0001F910F91FF90EF900895A0E0B0E0EBE733
:1000F000F0E00C94800EDC012B01FA019C9192300F
:1001000008F439C1EB018881823008F433C194309E
:1001100069F4843009F02FC111969C91119789815F
:10012000981709F428C1ABE6B0E025C1843009F482
:1001300021C18230A9F4923009F01DC19A01AD01AC
:1001400088E0EA010990AE01E90109929E0181501F
:10015000C1F7E201898111969C918923818308C1AD
:10016000923009F407C112962D903C901397EB0141
:100170008A819B811496AD90BD90CD90DC901797AD
:10018000EC80FD800E811F819101281B390BB90184
:1001900037FF04C066277727621B730B6032710537
:1001A0000CF061C0121613066CF537014801062EDB
:1001B00004C096948794779467940A94D2F721E0C8
:1001C00030E040E050E004C0220F331F441F551FB1
:1001D0006A95D2F721503040404050402E213F21B7
:1001E00040235123211531054105510521F021E01E
:1001F00030E040E050E079018A01E628F72808293C
:1002000019293CC0232BD1F1260E371E350146019A
:10021000062E04C096948794779467940A94D2F734
:1002200021E030E040E050E004C0220F331F441FC3
:10023000551F6A95D2F721503040404050402A2146
:100240003B214C215D21211531054105510521F04E
:1002500021E030E040E050E059016A01A628B728CB
:10026000C828D9280BC0821593052CF01C01AA249C
:10027000BB24650103C0EE24FF24870111969C91E5
:10028000D20111968C91981709F445C0992339F041
:10029000A80197012A193B094C095D0906C0A6016E
:1002A00095012E193F09400B510B57FD08C01182D3
:1002B0003382228224833583468357831DC081E0A5
:1002C00081833382228288279927DC01821B930B4A
:1002D000A40BB50B84839583A683B7830DC0220F2F
:1002E000331F441F551F24833583468357838281E0
:1002F000938101979383828324813581468157813D
:10030000DA01C9010197A109B1098F5F9F4FAF4F72
:10031000BF4328F30BC0918333822282EA0CFB1C7B
:100320000C1D1D1DE482F5820683178383E0808304
:10033000248135814681578157FF1AC0C901AA27F8
:1003400097FDA095BA2F81709070A070B0705695EF
:10035000479537952795822B932BA42BB52B848318
:100360009583A683B7838281938101969383828349
:10037000DF0101C0D201CD01CDB7DEB7E2E10C94BF
:100380009C0EA0E2B0E0E7ECF1E00C948C0E6983E7
:100390007A838B839C832D833E834F835887E9E048
:1003A000EE2EF12CEC0EFD1ECE010196B7010E943F
:1003B0007E058E010F5E1F4FCE010596B8010E948B
:1003C0007E058A8991E089278A8BC701B801AE0131
:1003D000475E5F4F0E9475000E94A904A096E6E068
:1003E0000C94A80EA0E2B0E0E8EFF1E00C948C0EC3
:1003F00069837A838B839C832D833E834F835887C5
:10040000F9E0EF2EF12CEC0EFD1ECE010196B701A6
:100410000E947E058E010F5E1F4FCE010596B8012A
:100420000E947E05C701B801AE01475E5F4F0E9482
:1004300075000E94A904A096E6E00C94A80EA0E224
:10044000B0E0E5E2F2E00C94800E69837A838B835E
:100450009C832D833E834F835887CE010196BE0136
:10046000675F7F4F0E947E05CE010596BE016F5EDD
:100470007F4F0E947E059985923088F0898982306D
:10048000C8F0943019F4823051F404C0843029F457
:10049000923081F48BE690E0C6C0923049F420E0BF
:1004A0009A858A89981321E02A87CE010996BBC0D4
:1004B000823049F420E09A858A89981321E02A8BBA
:1004C000CE014196B0C02D843E844F8458886D88FB
:1004D0007E888F88988CEE24FF248701AA24BB2471
:1004E000650140E050E060E070E0E0E0F0E0C10174
:1004F00081709070892BE9F0E60CF71C081D191D1E
:100500009A01AB012A0D3B1D4C1D5D1D80E090E062
:10051000A0E0B0E0E614F7040805190520F481E036
:1005200090E0A0E0B0E0BA01A901480F591F6A1F8E
:100530007B1FAA0CBB1CCC1CDD1C97FE08C081E0F5
:1005400090E0A0E0B0E0A82AB92ACA2ADB2A3196B6
:10055000E032F10549F0660C771C881C991C569412
:10056000479437942794C3CFFA85EA892B893C892D
:100570008B859C85280F391F2E5F3F4F17C0CA01FE
:1005800081709070892B61F016950795F794E79428
:1005900080E090E0A0E0B0E8E82AF92A0A2B1B2BC3
:1005A00076956795579547952F5F3F4F77FDE7CF36
:1005B0000CC0440F551F661F771F17FD4160EE0CDE
:1005C000FF1C001F111F21503040403090E05907A0
:1005D00090E0690790E4790760F32B8F3C8FDB0193
:1005E000CA018F779070A070B07080349105A1051A
:1005F000B10561F447FD0AC0E114F10401051105DC
:1006000029F0405C5F4F6F4F7F4F40781A8EFE1786
:1006100011F081E08A8F4D8F5E8F6F8F78A383E01A
:10062000898FCE0149960E94A904A096E2E10C941C
:100630009C0EA8E1B0E0EFE1F3E00C94880E698332
:100640007A838B839C832D833E834F835887B9E0C5
:10065000EB2EF12CEC0EFD1ECE010196B7010E948F
:100660007E058E010F5E1F4FCE010596B8010E94D8
:100670007E052985223008F47EC03989323010F495
:10068000B8017CC08A859A8989278A87243011F02D
:10069000223031F4231709F06EC06BE670E06EC0B3
:1006A000343039F41D861E861F86188A1C861B86E8
:1006B00004C0323021F484E08987B7015FC02B8504
:1006C0003C858B899C89281B390B3C872B87ED84C3
:1006D000FE840F851889AD88BE88CF88D88CEA142F
:1006E000FB040C051D0540F4EE0CFF1C001F111F40
:1006F000215030403C872B8720E030E040E050E044
:1007000080E090E0A0E0B0E460E070E0EA14FB0478
:100710000C051D0540F0282B392B4A2B5B2BEA18C2
:10072000FB080C091D09B695A79597958795EE0CC2
:10073000FF1C001F111F6F5F7F4F6F31710531F775
:10074000DA01C9018F779070A070B0708034910584
:10075000A105B10561F427FD0AC0E114F10401050A
:10076000110529F0205C3F4F4F4F5F4F20782D87B8
:100770003E874F87588BBE01675F7F4FCB010E943A
:10078000A9046896EAE00C94A40EA8E1B0E0EBECB2
:10079000F3E00C948C0E69837A838B839C832D8386
:1007A0003E834F83588789E0E82EF12CEC0EFD1E26
:1007B000CE010196B7010E947E058E010F5E1F4F8C
:1007C000CE010596B8010E947E058985823040F0F1
:1007D0008989823028F0C701B8010E94F60501C05E
:1007E0008FEF6896E6E00C94A80EA8E1B0E0EBEF7E
:1007F000F3E00C948C0E69837A838B839C832D8326
:100800003E834F83588789E0E82EF12CEC0EFD1EC5
:10081000CE010196B7010E947E058E010F5E1F4F2B
:10082000CE010596B8010E947E058985823040F090
:100830008989823028F0C701B8010E94F60501C0FD
:100840008FEF6896E6E00C94A80EA8E1B0E0EBE22A
:10085000F4E00C948C0E69837A838B839C832D83C4
:100860003E834F83588789E0E82EF12CEC0EFD1E65
:10087000CE010196B7010E947E058E010F5E1F4FCB
:10088000CE010596B8010E947E058985823040F030
:100890008989823028F0C701B8010E94F60501C09D
:1008A00081E06896E6E00C94A80EACE0B0E0EBE5E1
:1008B000F4E00C94900E69837A838B839C83CE0141
:1008C0000196BE016B5F7F4F0E947E058D81823055
:1008D00061F1823050F1843021F48E81882351F10E
:1008E0002EC02F81388537FD20C06E812F31310514
:1008F0001CF06623F9F023C08EE190E0821B930B7D
:1009000029853A854B855C8504C056954795379572
:1009100027958A95D2F76623B1F05095409530958A
:1009200021953F4F4F4F5F4F0EC020E030E040E039
:1009300050E009C02FEF3FEF4FEF5FE704C020E02A
:1009400030E040E050E8B901CA012C96E2E00C9496
:10095000AC0EDF92EF92FF920F931F93FC01E480A5
:10096000F58006811781D1808081823048F480E053
:1009700090E0A0E1B0E0E82AF92A0A2B1B2BA5C0E1
:10098000843009F49FC0823021F4EE24FF248701D3
:1009900005C0E114F1040105110519F4E0E0F0E0EF
:1009A00096C0628173819FEF623879070CF05BC05B
:1009B00022E83FEF261B370B2A3131052CF020E0CF
:1009C00030E040E050E02AC0B801A701022E04C088
:1009D00076956795579547950A94D2F781E090E010
:1009E000A0E0B0E004C0880F991FAA1FBB1F2A9582
:1009F000D2F70197A109B1098E219F21A023B1232C
:100A00000097A105B10521F081E090E0A0E0B0E001
:100A10009A01AB01282B392B4A2B5B2BDA01C90138
:100A20008F779070A070B07080349105A105B105EA
:100A300039F427FF09C0205C3F4F4F4F5F4F04C080
:100A4000215C3F4F4F4F5F4FE0E0F0E02030A0E0EF
:100A50003A07A0E04A07A0E45A0710F0E1E0F0E00E
:100A600079018A0127C06038710564F5FB01E158FE
:100A7000FF4FD801C7018F779070A070B07080349D
:100A80009105A105B10539F4E7FE0DC080E490E0C1
:100A9000A0E0B0E004C08FE390E0A0E0B0E0E80E9A
:100AA000F91E0A1F1B1F17FF05C016950795F7941F
:100AB000E794319687E016950795F794E7948A9521
:100AC000D1F705C0EE24FF248701EFEFF0E06E2F91
:100AD000679566276795902F9F77D794DD24D794E5
:100AE0008E2F8695492F462B582F5D29B701CA01B5
:100AF0001F910F91FF90EF90DF900895FC01DB01B3
:100B0000408151812281622F6F7770E0221F22275E
:100B1000221F9381892F880F822B282F30E0991F65
:100B20009927991F11969C93119721153105A9F5C5
:100B3000411551056105710511F482E037C082E865
:100B40009FEF13969C938E9312979A01AB0167E0E7
:100B5000220F331F441F551F6A95D1F783E08C93F2
:100B60000DC0220F331F441F551F12968D919C916B
:100B70001397019713969C938E931297203080E0E1
:100B8000380780E0480780E4580758F314962D93FF
:100B90003D934D935C93179708952F3F310579F45A
:100BA000411551056105710519F484E08C93089590
:100BB00064FF03C081E08C9312C01C9210C02F57B9
:100BC000304013963C932E93129783E08C9387E0EA
:100BD000440F551F661F771F8A95D1F770641496CE
:100BE0004D935D936D937C93179708951F93DC014C
:100BF000FB019C91923008F447C08081823008F458
:100C000043C0943051F411961C91843099F5818140
:100C1000682F70E0611B71093FC0843021F0923071
:100C200031F48230B9F18181882389F12DC0119688
:100C30001C9111978230F1F081811817D9F4129626
:100C40002D913C911397828193818217930794F0A1
:100C500028173907BCF014968D919D910D90BC9189
:100C6000A02D2481358146815781281739074A07ED
:100C70005B0718F4112341F00AC082179307A407F9
:100C8000B50740F4112319F061E070E005C06FEF83
:100C90007FEF02C060E070E0CB011F910895DF9309
:100CA000CF93CDB7DEB7E1970FB6F894DEBF0FBE96
:100CB000CDBF89ABA2E3B0E0E2E3F0E08081837CCA
:100CC0008C9389A9882F90E081709070882339F0E7
:100CD000A2E3B0E0E2E3F0E0808184608C9389A934
:100CE000882F90E082709070009739F0A2E3B0E016
:100CF000E2E3F0E0808188608C9389A9882F90E0FE
:100D000084709070009739F0A2E3B0E0E2E3F0E085
:100D1000808180618C9389A9882F90E08870907081
:100D2000009739F0A2E3B0E0E2E3F0E08081806276
:100D30008C93A2E3B0E0E2E3F0E0808182608C93E8
:100D400080E090E0A0E8BFE38DA79EA7AFA7B8AB77
:100D50006DA57EA58FA598A92BEA3AEA4AE250E450
:100D60000E941F02DC01CB0189A79AA7ABA7BCA7F1
:100D700069A57AA58BA59CA520E030E040E85FE35B
:100D80000E94250488231CF481E088A791C069A5EE
:100D90007AA58BA59CA520E030E04FE753E40E94A4
:100DA000C50318160CF07BC06DA57EA58FA598A96C
:100DB00020E030E04AE754E40E941903DC01CB0153
:100DC0008CA39DA3AEA3BFA36CA17DA18EA19FA167
:100DD00020E030E04AEF54E40E941F02DC01CB0126
:100DE00088A399A3AAA3BBA368A179A18AA19BA167
:100DF00020E030E040E85FE30E94250488232CF4E3
:100E000081E090E09F8F8E8F3FC068A179A18AA179
:100E10009BA120E03FEF4FE757E40E94C50318165F
:100E20004CF56CA17DA18EA19FA120E030E040E2B5
:100E300051E40E941F02DC01CB01BC01CD010E94E4
:100E40004900DC01CB019F8F8E8F0FC088EC90E0B2
:100E50009D8F8C8F8C8D9D8D0197F1F79D8F8C8F41
:100E60008E8D9F8D01979F8F8E8F8E8D9F8D00977A
:100E700069F724C068A179A18AA19BA10E944900B9
:100E8000DC01CB019F8F8E8F8E8D9F8D9B8F8A8FE4
:100E90008A8D9B8D0197F1F79B8F8A8F0FC069A573
:100EA0007AA58BA59CA50E944900DC01CB0188A7EF
:100EB00088A5898F898D8A95F1F7898FA2E3B0E0A3
:100EC000E2E3F0E080818D7F8C9380E090E0A8ECFD
:100ED000B2E48D8B9E8BAF8BB88F6D897E898F89A5
:100EE000988D2BEA3AEA4AE250E40E941F02DC01A4
:100EF000CB01898B9A8BAB8BBC8B69897A898B8967
:100F00009C8920E030E040E85FE30E9425048823CC
:100F10001CF481E0888B91C069897A898B899C89CE
:100F200020E030E04FE753E40E94C50318160CF0B0
:100F30007BC06D897E898F89988D20E030E04AE7FB
:100F400054E40E941903DC01CB018C879D87AE8796
:100F5000BF876C857D858E859F8520E030E04AEFD8
:100F600054E40E941F02DC01CB0188879987AA877D
:100F7000BB87688579858A859B8520E030E040E8DD
:100F80005FE30E94250488232CF481E090E09F8396
:100F90008E833FC0688579858A859B8520E03FEFF9
:100FA0004FE757E40E94C50318164CF56C857D8504
:100FB0008E859F8520E030E040E251E40E941F02D0
:100FC000DC01CB01BC01CD010E944900DC01CB0159
:100FD0009F838E830FC088EC90E09D838C838C81EF
:100FE0009D810197F1F79D838C838E819F8101976D
:100FF0009F838E838E819F81009769F724C06885C7
:1010000079858A859B850E944900DC01CB019F83FD
:101010008E838E819F819B838A838A819B810197A6
:10102000F1F79B838A830FC069897A898B899C89B0
:101030000E944900DC01CB01888B888989838981E2
:101040008A95F1F78983E1960FB6F894DEBF0FBE5B
:10105000CDBFCF91DF910895DF93CF930F92CDB79E
:10106000DEB78983A2E3B0E0E2E3F0E080818E7F27
:101070008C93898182958F700E944F0689818F7031
:101080000E944F060F90CF91DF910895DF93CF9389
:101090000F92CDB7DEB78983A2E3B0E0E2E3F0E0E0
:1010A000808181608C93898182958F700E944F0628
:1010B00089818F700E944F060F90CF91DF91089524
:1010C0000F931F93DF93CF93CDB7DEB7C257D040B6
:1010D0000FB6F894DEBF0FBECDBFA1E3B0E0E1E3F1
:1010E000F0E080818C638C93A1E3B0E0E1E3F0E079
:1010F000808183608C93FE01E159FF4F80E090E096
:10110000A0EAB1E480839183A283B3838E01055961
:101110001F4FFE01E159FF4F6081718182819381F0
:1011200020E030E04AEF54E40E941F02DC01CB01D2
:10113000F80180839183A283B383FE01E559FF4FB9
:10114000608171818281938120E030E040E85FE33B
:101150000E942504882344F4FE01E759FF4F81E0F3
:1011600090E09183808364C0FE01E559FF4F608168
:1011700071818281938120E03FEF4FE757E40E9425
:10118000C50318160CF043C0FE01E159FF4F608102
:1011900071818281938120E030E040E251E40E943D
:1011A0001F02DC01CB018E0107591F4FBC01CD018D
:1011B0000E944900DC01CB01F801918380831FC0AC
:1011C000FE01E959FF4F88EC90E091838083FE0196
:1011D000E959FF4F808191810197F1F7FE01E959AB
:1011E000FF4F91838083DE01A759BF4FFE01E7596E
:1011F000FF4F80819181019711969C938E93FE0100
:10120000E759FF4F808191810097D1F627C08E0169
:1012100007591F4FFE01E559FF4F6081718182819F
:1012200093810E944900DC01CB01F8019183808306
:10123000DE01AB59BF4FFE01E759FF4F808191811D
:101240008D939C93FE01EB59FF4F80819181019713
:10125000F1F7FE01EB59FF4F91838083A2E3B0E0E9
:10126000E2E3F0E080818E7F8C93A2E3B0E0E2E3E2
:10127000F0E080818D7F8C9383E00E944F06FE0119
:10128000EF59FF4F80E090E0A0EAB0E480839183C3
:10129000A283B3838E01035A1F4FFE01EF59FF4F04
:1012A000608171818281938120E030E04AEF54E4D3
:1012B0000E941F02DC01CB01F80180839183A2838D
:1012C000B383FE01E35AFF4F608171818281938174
:1012D00020E030E040E85FE30E942504882344F4E6
:1012E000FE01E55AFF4F81E090E09183808364C066
:1012F000FE01E35AFF4F608171818281938120E07A
:101300003FEF4FE757E40E94C50318160CF043C0A7
:10131000FE01EF59FF4F608171818281938120E04E
:1013200030E040E251E40E941F02DC01CB018E015B
:10133000055A1F4FBC01CD010E944900DC01CB01C1
:10134000F801918380831FC0FE01E75AFF4F88ECAC
:1013500090E091838083FE01E75AFF4F8081918165
:101360000197F1F7FE01E75AFF4F91838083DE0179
:10137000A55ABF4FFE01E55AFF4F80819181019729
:1013800011969C938E93FE01E55AFF4F80819181C7
:101390000097D1F627C08E01055A1F4FFE01E35A70
:1013A000FF4F60817181828193810E944900DC013D
:1013B000CB01F80191838083DE01A95ABF4FFE0162
:1013C000E55AFF4F808191818D939C93FE01E95AEC
:1013D000FF4F808191810197F1F7FE01E95AFF4F9C
:1013E0009183808383E00E944F06FE01ED5AFF4FF8
:1013F00080E090E0A6E1B3E480839183A283B3838D
:101400008E01015B1F4FFE01ED5AFF4F608171811C
:10141000828193812BEA3AEA4AE250E40E941F0259
:10142000DC01CB01F80180839183A283B383FE01A9
:10143000E15BFF4F608171818281938120E030E028
:1014400040E85FE30E942504882334F4FE01E25B58
:10145000FF4F81E08083E0C0FE01E15BFF4F6081D0
:1014600071818281938120E030E04FE753E40E9454
:10147000C50318160CF0C0C0FE01ED5AFF4F608185
:1014800071818281938120E030E04AE754E40E9438
:101490001903DC01CB01FE01E65BFF4F80839183E2
:1014A000A283B3838E010A5B1F4FFE01E65BFF4FF1
:1014B000608171818281938120E030E04AEF54E4C1
:1014C0000E941F02DC01CB01F80180839183A2837B
:1014D000B383FE01EA5BFF4F60817181828193815A
:1014E00020E030E040E85FE30E942504882344F4D4
:1014F000FE01EC5BFF4F81E090E09183808364C04C
:10150000FE01EA5BFF4F608171818281938120E05F
:101510003FEF4FE757E40E94C50318160CF043C095
:10152000FE01E65BFF4F608171818281938120E043
:1015300030E040E251E40E941F02DC01CB018E0149
:101540000C5B1F4FBC01CD010E944900DC01CB01A7
:10155000F801918380831FC0FE01EE5BFF4F88EC92
:1015600090E091838083FE01EE5BFF4F808191814B
:101570000197F1F7FE01EE5BFF4F91838083DE015F
:10158000AC5BBF4FFE01EC5BFF4F80819181019707
:1015900011969C938E93FE01EC5BFF4F80819181AD
:1015A0000097D1F642C08E010C5B1F4FFE01EA5B33
:1015B000FF4F60817181828193810E944900DC012B
:1015C000CB01F80191838083DE01A05CBF4FFE0157
:1015D000EC5BFF4F8081918111969C938E93FE016D
:1015E000E05CFF4F808191810197F1F7FE01E05CA3
:1015F000FF4F9183808319C08E01025B1F4FFE0154
:10160000E15BFF4F60817181828193810E9449007B
:10161000DC01CB01F8018083FE01E25BFF4F80819A
:101620008FAF8FAD8A95F1F78FAF83E00E944F06A1
:1016300080E090E0A6E1B3E48BAF9CAFADAFBEAF6E
:101640006BAD7CAD8DAD9EAD2BEA3AEA4AE250E43B
:101650000E941F02DC01CB018FAB98AFA9AFBAAFDC
:101660006FA978AD89AD9AAD20E030E040E85FE346
:101670000E94250488231CF481E08EAB91C06FA9E1
:1016800078AD89AD9AAD20E030E04FE753E40E9499
:10169000C50318160CF07BC06BAD7CAD8DAD9EAD57
:1016A00020E030E04AE754E40E941903DC01CB015A
:1016B0008AAB9BABACABBDAB6AA97BA98CA99DA93E
:1016C00020E030E04AEF54E40E941F02DC01CB012D
:1016D0008EA79FA7A8ABB9AB6EA57FA588A999A92E
:1016E00020E030E040E85FE30E94250488232CF4EA
:1016F00081E090E09DA78CA73FC06EA57FA588A93B
:1017000099A920E03FEF4FE757E40E94C503181660
:101710004CF56AA97BA98CA99DA920E030E040E2A4
:1017200051E40E941F02DC01CB01BC01CD010E94EB
:101730004900DC01CB019DA78CA70FC088EC90E08D
:101740009BA78AA78AA59BA50197F1F79BA78AA7C4
:101750008CA59DA501979DA78CA78CA59DA50097FD
:1017600069F724C06EA57FA588A999A90E944900A0
:10177000DC01CB019DA78CA78CA59DA599A788A767
:1017800088A599A50197F1F799A788A70FC06FA918
:1017900078AD89AD9AAD0E944900DC01CB018EABDA
:1017A0008EA98FA38FA18A95F1F78FA382E00E9463
:1017B0004F0680E090E0A6E1B3E48BA39CA3ADA329
:1017C000BEA36BA17CA18DA19EA12BEA3AEA4AE2BD
:1017D00050E40E941F02DC01CB018F8F98A3A9A3C4
:1017E000BAA36F8D78A189A19AA120E030E040E8EA
:1017F0005FE30E94250488231CF481E08E8F91C052
:101800006F8D78A189A19AA120E030E04FE753E4E1
:101810000E94C50318160CF07BC06BA17CA18DA1A2
:101820009EA120E030E04AE754E40E941903DC0165
:10183000CB018A8F9B8FAC8FBD8F6A8D7B8D8C8DFA
:101840009D8D20E030E04AEF54E40E941F02DC014D
:10185000CB018E8B9F8BA88FB98F6E897F89888DE6
:10186000998D20E030E040E85FE30E942504882362
:101870002CF481E090E09D8B8C8B3FC06E897F893A
:10188000888D998D20E03FEF4FE757E40E94C50314
:1018900018164CF56A8D7B8D8C8D9D8D20E030E087
:1018A00040E251E40E941F02DC01CB01BC01CD01EA
:1018B0000E944900DC01CB019D8B8C8B0FC088EC12
:1018C00090E09B8B8A8B8A899B890197F1F79B8B90
:1018D0008A8B8C899D8901979D8B8C8B8C899D89A6
:1018E000009769F724C06E897F89888D998D0E9441
:1018F0004900DC01CB019D8B8C8B8C899D89998B58
:10190000888B888999890197F1F7998B888B0FC00B
:101910006F8D78A189A19AA10E944900DC01CB01B9
:101920008E8F8E8D8F878F858A95F1F78F8788E2CE
:101930000E942C088CE00E942C0881E00E942C0858
:1019400080E090E0A0E0B0E48B879C87AD87BE8705
:101950006B857C858D859E8520E030E04AEF54E4E0
:101960000E941F02DC01CB018F839887A987BA8769
:101970006F81788589859A8520E030E040E85FE3D3
:101980000E94250488232CF481E090E09E838D83BF
:101990003FC06F81788589859A8520E03FEF4FE7CA
:1019A00057E40E94C50318164CF56B857C858D8520
:1019B0009E8520E030E040E251E40E941F02DC01FD
:1019C000CB01BC01CD010E944900DC01CB019E830B
:1019D0008D830FC088EC90E09C838B838B819C81EE
:1019E0000197F1F79C838B838D819E8101979E8364
:1019F0008D838D819E81009769F714C06F817885F2
:101A000089859A850E944900DC01CB019E838D83E4
:101A10008D819E819A83898389819A810197F1F7CB
:101A20009A83898386E00E942C08CE58DF4F0FB638
:101A3000F894DEBF0FBECDBFCF91DF911F910F9104
:101A40000895DF93CF9300D000D0CDB7DEB78A835F
:101A50006B838A81882329F08B81982F905C9C83EB
:101A600002C08B818C839C819983898180680E94CC
:101A70002C080F900F900F900F90CF91DF91089549
:101A8000DF93CF9300D000D0CDB7DEB79C838B839C
:101A90001A8219820FC029813A818B819C81FC01B5
:101AA000E20FF31F80810E94460889819A81019686
:101AB0009A83898329813A818B819C81FC01E20F81
:101AC000F31F8081882339F70F900F900F900F90AC
:101AD000CF91DF910895DF93CF930F92CDB7DEB70B
:101AE0008983E2E2F0E08981880F8083E6E5F0E017
:101AF00085E480830F90CF91DF9108951F920F921C
:101B00000FB60F9211242F933F934F935F936F93D0
:101B10007F938F939F93AF93BF93EF93FF93DF9345
:101B2000CF93CDB7DEB76197DEBFCDBFE1E2F0E086
:101B30008081882F90E09C01287F3070398B288B22
:101B4000888999898036910509F4AAC0288939893C
:101B50002038310509F0A4C0E3E2F0E080818F87EE
:101B60008F858A3021F08F858D3009F088C0809173
:101B70007400882F90E0FC01EB58FF4F108281E049
:101B80000E942C0880E090E0A0E0B0E48B879C8766
:101B9000AD87BE876B857C858D859E8520E030E096
:101BA0004AEF54E40E941F02DC01CB018F83988727
:101BB000A987BA876F81788589859A8520E030E08A
:101BC00040E85FE30E94250488232CF481E090E044
:101BD0009E838D833FC06F81788589859A8520E0BB
:101BE0003FEF4FE757E40E94C50318164CF56B858D
:101BF0007C858D859E8520E030E040E251E40E94A6
:101C00001F02DC01CB01BC01CD010E944900DC01B7
:101C1000CB019E838D830FC088EC90E09C838B83E7
:101C20008B819C810197F1F79C838B838D819E81B1
:101C300001979E838D838D819E81009769F714C0E3
:101C40006F81788589859A850E944900DC01CB01E6
:101C50009E838D838D819E819A83898389819A81D8
:101C60000197F1F79A83898380E060E00E94210D5B
:101C700085E790E00E94400D1092740011C08091A1
:101C800074008F3168F420917400822F90E0FC0181
:101C9000EB58FF4F8F858083822F8F5F8093740076
:101CA000A6E5B0E0E6E5F0E08081806C8C9361967B
:101CB000DEBFCDBFCF91DF91FF91EF91BF91AF918B
:101CC0009F918F917F916F915F914F913F912F9154
:101CD0000F900FBE0F901F901895DF93CF93CDB745
:101CE000DEB70E94600880E060E00E94210D80E67F
:101CF00090E00E94400D80E20E946B0D7894FFCF2F
:101D00002F923F924F925F926F927F928F929F920B
:101D1000AF92BF92CF92DF92EF92FF920F931F93F9
:101D2000CF93DF93CDB7DEB7CA1BDB0B0FB6F894AA
:101D3000DEBF0FBECDBF09942A88398848885F84EA
:101D40006E847D848C849B84AA84B984C884DF805B
:101D5000EE80FD800C811B81AA81B981CE0FD11D3F
:101D60000FB6F894DEBF0FBECDBFED010895F89415
:021D7000FFCFA3
:101D720057617A7A75702062726F0000000000006D
:041D8200000000005D
:00000001FF
